{
  "address": "0xD5B8BEfBf00054Ac382D783614bbE4cC9c0C2599",
  "abi": [
    {
      "inputs": [
        {
          "internalType": "uint256",
          "name": "initialSupply",
          "type": "uint256"
        }
      ],
      "stateMutability": "nonpayable",
      "type": "constructor"
    },
    {
      "anonymous": false,
      "inputs": [
        {
          "indexed": true,
          "internalType": "address",
          "name": "owner",
          "type": "address"
        },
        {
          "indexed": true,
          "internalType": "address",
          "name": "spender",
          "type": "address"
        },
        {
          "indexed": false,
          "internalType": "uint256",
          "name": "value",
          "type": "uint256"
        }
      ],
      "name": "Approval",
      "type": "event"
    },
    {
      "anonymous": false,
      "inputs": [
        {
          "indexed": false,
          "internalType": "address",
          "name": "holder",
          "type": "address"
        }
      ],
      "name": "HolderAdded",
      "type": "event"
    },
    {
      "anonymous": false,
      "inputs": [
        {
          "indexed": false,
          "internalType": "address",
          "name": "holder",
          "type": "address"
        }
      ],
      "name": "HolderRemoved",
      "type": "event"
    },
    {
      "anonymous": false,
      "inputs": [
        {
          "indexed": true,
          "internalType": "address",
          "name": "from",
          "type": "address"
        },
        {
          "indexed": true,
          "internalType": "address",
          "name": "to",
          "type": "address"
        },
        {
          "indexed": false,
          "internalType": "uint256",
          "name": "value",
          "type": "uint256"
        }
      ],
      "name": "Transfer",
      "type": "event"
    },
    {
      "inputs": [
        {
          "internalType": "address",
          "name": "account",
          "type": "address"
        }
      ],
      "name": "_isHolder",
      "outputs": [
        {
          "internalType": "bool",
          "name": "",
          "type": "bool"
        }
      ],
      "stateMutability": "view",
      "type": "function"
    },
    {
      "inputs": [
        {
          "internalType": "address",
          "name": "owner",
          "type": "address"
        },
        {
          "internalType": "address",
          "name": "spender",
          "type": "address"
        }
      ],
      "name": "allowance",
      "outputs": [
        {
          "internalType": "uint256",
          "name": "",
          "type": "uint256"
        }
      ],
      "stateMutability": "view",
      "type": "function"
    },
    {
      "inputs": [
        {
          "internalType": "address",
          "name": "spender",
          "type": "address"
        },
        {
          "internalType": "uint256",
          "name": "amount",
          "type": "uint256"
        }
      ],
      "name": "approve",
      "outputs": [
        {
          "internalType": "bool",
          "name": "",
          "type": "bool"
        }
      ],
      "stateMutability": "nonpayable",
      "type": "function"
    },
    {
      "inputs": [
        {
          "internalType": "address",
          "name": "account",
          "type": "address"
        }
      ],
      "name": "balanceOf",
      "outputs": [
        {
          "internalType": "uint256",
          "name": "",
          "type": "uint256"
        }
      ],
      "stateMutability": "view",
      "type": "function"
    },
    {
      "inputs": [],
      "name": "decimals",
      "outputs": [
        {
          "internalType": "uint8",
          "name": "",
          "type": "uint8"
        }
      ],
      "stateMutability": "view",
      "type": "function"
    },
    {
      "inputs": [
        {
          "internalType": "address",
          "name": "spender",
          "type": "address"
        },
        {
          "internalType": "uint256",
          "name": "subtractedValue",
          "type": "uint256"
        }
      ],
      "name": "decreaseAllowance",
      "outputs": [
        {
          "internalType": "bool",
          "name": "",
          "type": "bool"
        }
      ],
      "stateMutability": "nonpayable",
      "type": "function"
    },
    {
      "inputs": [],
      "name": "getHolders",
      "outputs": [
        {
          "internalType": "address[]",
          "name": "",
          "type": "address[]"
        }
      ],
      "stateMutability": "view",
      "type": "function"
    },
    {
      "inputs": [
        {
          "internalType": "uint256",
          "name": "",
          "type": "uint256"
        }
      ],
      "name": "holders",
      "outputs": [
        {
          "internalType": "address",
          "name": "",
          "type": "address"
        }
      ],
      "stateMutability": "view",
      "type": "function"
    },
    {
      "inputs": [
        {
          "internalType": "address",
          "name": "spender",
          "type": "address"
        },
        {
          "internalType": "uint256",
          "name": "addedValue",
          "type": "uint256"
        }
      ],
      "name": "increaseAllowance",
      "outputs": [
        {
          "internalType": "bool",
          "name": "",
          "type": "bool"
        }
      ],
      "stateMutability": "nonpayable",
      "type": "function"
    },
    {
      "inputs": [
        {
          "internalType": "address",
          "name": "account",
          "type": "address"
        },
        {
          "internalType": "uint256",
          "name": "amount",
          "type": "uint256"
        }
      ],
      "name": "mint",
      "outputs": [],
      "stateMutability": "nonpayable",
      "type": "function"
    },
    {
      "inputs": [],
      "name": "name",
      "outputs": [
        {
          "internalType": "string",
          "name": "",
          "type": "string"
        }
      ],
      "stateMutability": "view",
      "type": "function"
    },
    {
      "inputs": [],
      "name": "symbol",
      "outputs": [
        {
          "internalType": "string",
          "name": "",
          "type": "string"
        }
      ],
      "stateMutability": "view",
      "type": "function"
    },
    {
      "inputs": [],
      "name": "totalSupply",
      "outputs": [
        {
          "internalType": "uint256",
          "name": "",
          "type": "uint256"
        }
      ],
      "stateMutability": "view",
      "type": "function"
    },
    {
      "inputs": [
        {
          "internalType": "address",
          "name": "account",
          "type": "address"
        },
        {
          "internalType": "uint256",
          "name": "amount",
          "type": "uint256"
        }
      ],
      "name": "transfer",
      "outputs": [
        {
          "internalType": "bool",
          "name": "",
          "type": "bool"
        }
      ],
      "stateMutability": "nonpayable",
      "type": "function"
    },
    {
      "inputs": [
        {
          "internalType": "address",
          "name": "from",
          "type": "address"
        },
        {
          "internalType": "address",
          "name": "to",
          "type": "address"
        },
        {
          "internalType": "uint256",
          "name": "amount",
          "type": "uint256"
        }
      ],
      "name": "transferFrom",
      "outputs": [
        {
          "internalType": "bool",
          "name": "",
          "type": "bool"
        }
      ],
      "stateMutability": "nonpayable",
      "type": "function"
    }
  ],
  "transactionHash": "0x4e43d7bc0c2451efb00b45f40413ba5da9846409b2f945f7c70fd022c24ea13c",
  "args": [
    "100000000000000000000000"
  ],
  "numDeployments": 1,
  "solcInputHash": "5a71bdefe3fafd12310a04f019384c8e",
  "bytecode": "0x60806040523480156200001157600080fd5b50604051620014d1380380620014d18339810160408190526200003491620002ba565b604051806040016040528060078152602001662237b3a1b7b4b760c91b81525060405180604001604052806003815260200162444f4760e81b81525081600390805190602001906200008892919062000214565b5080516200009e90600490602084019062000214565b5050600580546001810182556000919091527f036b6384b5eca791c62761152d0c79bb0604c104a5fb6f4eb0703f3154bb3db00180546001600160a01b031916339081179091556040519081527f9894d458cf29e8bc4eb7e591bac54b31dc90125dfa852474419972ab4347dd12915060200160405180910390a16200012533826200012c565b5062000338565b6001600160a01b038216620001875760405162461bcd60e51b815260206004820152601f60248201527f45524332303a206d696e7420746f20746865207a65726f206164647265737300604482015260640160405180910390fd5b80600260008282546200019b9190620002d4565b90915550506001600160a01b03821660009081526020819052604081208054839290620001ca908490620002d4565b90915550506040518181526001600160a01b038316906000907fddf252ad1be2c89b69c2b068fc378daa952ba7f163c4a11628f55a4df523b3ef9060200160405180910390a35050565b8280546200022290620002fb565b90600052602060002090601f01602090048101928262000246576000855562000291565b82601f106200026157805160ff191683800117855562000291565b8280016001018555821562000291579182015b828111156200029157825182559160200191906001019062000274565b506200029f929150620002a3565b5090565b5b808211156200029f5760008155600101620002a4565b600060208284031215620002cd57600080fd5b5051919050565b60008219821115620002f657634e487b7160e01b600052601160045260246000fd5b500190565b600181811c908216806200031057607f821691505b602082108114156200033257634e487b7160e01b600052602260045260246000fd5b50919050565b61118980620003486000396000f3fe608060405234801561001057600080fd5b50600436106100f55760003560e01c806340c10f191161009757806395d89b411161006657806395d89b4114610213578063a457c2d71461021b578063a9059cbb1461022e578063dd62ed3e1461024157600080fd5b806340c10f19146101ad5780635ee6d675146101c25780635fe8e7cc146101d557806370a08231146101ea57600080fd5b806323b872dd116100d357806323b872dd1461014d5780632a11ced014610160578063313ce5671461018b578063395093511461019a57600080fd5b806306fdde03146100fa578063095ea7b31461011857806318160ddd1461013b575b600080fd5b61010261027a565b60405161010f9190610eea565b60405180910390f35b61012b610126366004610f5b565b61030c565b604051901515815260200161010f565b6002545b60405190815260200161010f565b61012b61015b366004610f85565b610324565b61017361016e366004610fc1565b61052a565b6040516001600160a01b03909116815260200161010f565b6040516012815260200161010f565b61012b6101a8366004610f5b565b610554565b6101c06101bb366004610f5b565b610593565b005b61012b6101d0366004610fda565b610622565b6101dd61068c565b60405161010f9190610ffc565b61013f6101f8366004610fda565b6001600160a01b031660009081526020819052604090205490565b610102610759565b61012b610229366004610f5b565b610768565b61012b61023c366004610f5b565b610822565b61013f61024f366004611049565b6001600160a01b03918216600090815260016020908152604080832093909416825291909152205490565b6060600380546102899061107c565b80601f01602080910402602001604051908101604052809291908181526020018280546102b59061107c565b80156103025780601f106102d757610100808354040283529160200191610302565b820191906000526020600020905b8154815290600101906020018083116102e557829003601f168201915b5050505050905090565b60003361031a818585610a0a565b5060019392505050565b600061032f83610622565b6103b557600580546001810182556000919091527f036b6384b5eca791c62761152d0c79bb0604c104a5fb6f4eb0703f3154bb3db00180546001600160a01b0319166001600160a01b0385169081179091556040519081527f9894d458cf29e8bc4eb7e591bac54b31dc90125dfa852474419972ab4347dd129060200160405180910390a15b336103c1858285610b62565b6103cc858585610bf4565b60005b60055481101561051e57856001600160a01b0316600582815481106103f6576103f66110b1565b6000918252602090912001546001600160a01b031614801561042e57506001600160a01b038616600090815260208190526040902054155b1561050c5760058054610443906001906110dd565b81548110610453576104536110b1565b600091825260209091200154600580546001600160a01b03909216918390811061047f5761047f6110b1565b60009182526020918290200180546001600160a01b0319166001600160a01b0393841617905560405191881682527fd9bc583d1445615d8b795b7374f03ff79efa83b6359a91331efd95e4cf023ab6910160405180910390a160058054806104e9576104e96110f4565b600082815260209020810160001990810180546001600160a01b03191690550190555b806105168161110a565b9150506103cf565b50600195945050505050565b6005818154811061053a57600080fd5b6000918252602090912001546001600160a01b0316905081565b3360008181526001602090815260408083206001600160a01b038716845290915281205490919061031a908290869061058e908790611125565b610a0a565b600580546001810182556000919091527f036b6384b5eca791c62761152d0c79bb0604c104a5fb6f4eb0703f3154bb3db00180546001600160a01b0319166001600160a01b0384169081179091556040519081527f9894d458cf29e8bc4eb7e591bac54b31dc90125dfa852474419972ab4347dd129060200160405180910390a161061e8282610e0b565b5050565b6000805b60055481101561068357826001600160a01b03166005828154811061064d5761064d6110b1565b6000918252602090912001546001600160a01b031614156106715750600192915050565b8061067b8161110a565b915050610626565b50600092915050565b60055460609060009067ffffffffffffffff8111156106ad576106ad61113d565b6040519080825280602002602001820160405280156106d6578160200160208202803683370190505b50905060005b60055481101561075357600581815481106106f9576106f96110b1565b9060005260206000200160009054906101000a90046001600160a01b0316828281518110610729576107296110b1565b6001600160a01b03909216602092830291909101909101528061074b8161110a565b9150506106dc565b50919050565b6060600480546102899061107c565b3360008181526001602090815260408083206001600160a01b03871684529091528120549091908381101561080a5760405162461bcd60e51b815260206004820152602560248201527f45524332303a2064656372656173656420616c6c6f77616e63652062656c6f7760448201527f207a65726f00000000000000000000000000000000000000000000000000000060648201526084015b60405180910390fd5b6108178286868403610a0a565b506001949350505050565b600061082d83610622565b6108b357600580546001810182556000919091527f036b6384b5eca791c62761152d0c79bb0604c104a5fb6f4eb0703f3154bb3db00180546001600160a01b0319166001600160a01b0385169081179091556040519081527f9894d458cf29e8bc4eb7e591bac54b31dc90125dfa852474419972ab4347dd129060200160405180910390a15b6108be338484610bf4565b60005b60055481101561031a57336001600160a01b0316600582815481106108e8576108e86110b1565b6000918252602090912001546001600160a01b0316148015610917575033600090815260208190526040902054155b156109f8576005805461092c906001906110dd565b8154811061093c5761093c6110b1565b600091825260209091200154600580546001600160a01b039092169183908110610968576109686110b1565b60009182526020918290200180546001600160a01b0319166001600160a01b0393909316929092179091556040513381527fd9bc583d1445615d8b795b7374f03ff79efa83b6359a91331efd95e4cf023ab6910160405180910390a160058054806109d5576109d56110f4565b600082815260209020810160001990810180546001600160a01b03191690550190555b80610a028161110a565b9150506108c1565b6001600160a01b038316610a855760405162461bcd60e51b8152602060048201526024808201527f45524332303a20617070726f76652066726f6d20746865207a65726f2061646460448201527f72657373000000000000000000000000000000000000000000000000000000006064820152608401610801565b6001600160a01b038216610b015760405162461bcd60e51b815260206004820152602260248201527f45524332303a20617070726f766520746f20746865207a65726f20616464726560448201527f73730000000000000000000000000000000000000000000000000000000000006064820152608401610801565b6001600160a01b0383811660008181526001602090815260408083209487168084529482529182902085905590518481527f8c5be1e5ebec7d5bd14f71427d1e84f3dd0314c0f7b2291e5b200ac8c7c3b925910160405180910390a3505050565b6001600160a01b038381166000908152600160209081526040808320938616835292905220546000198114610bee5781811015610be15760405162461bcd60e51b815260206004820152601d60248201527f45524332303a20696e73756666696369656e7420616c6c6f77616e63650000006044820152606401610801565b610bee8484848403610a0a565b50505050565b6001600160a01b038316610c705760405162461bcd60e51b815260206004820152602560248201527f45524332303a207472616e736665722066726f6d20746865207a65726f20616460448201527f64726573730000000000000000000000000000000000000000000000000000006064820152608401610801565b6001600160a01b038216610cec5760405162461bcd60e51b815260206004820152602360248201527f45524332303a207472616e7366657220746f20746865207a65726f206164647260448201527f65737300000000000000000000000000000000000000000000000000000000006064820152608401610801565b6001600160a01b03831660009081526020819052604090205481811015610d7b5760405162461bcd60e51b815260206004820152602660248201527f45524332303a207472616e7366657220616d6f756e742065786365656473206260448201527f616c616e636500000000000000000000000000000000000000000000000000006064820152608401610801565b6001600160a01b03808516600090815260208190526040808220858503905591851681529081208054849290610db2908490611125565b92505081905550826001600160a01b0316846001600160a01b03167fddf252ad1be2c89b69c2b068fc378daa952ba7f163c4a11628f55a4df523b3ef84604051610dfe91815260200190565b60405180910390a3610bee565b6001600160a01b038216610e615760405162461bcd60e51b815260206004820152601f60248201527f45524332303a206d696e7420746f20746865207a65726f2061646472657373006044820152606401610801565b8060026000828254610e739190611125565b90915550506001600160a01b03821660009081526020819052604081208054839290610ea0908490611125565b90915550506040518181526001600160a01b038316906000907fddf252ad1be2c89b69c2b068fc378daa952ba7f163c4a11628f55a4df523b3ef9060200160405180910390a35050565b600060208083528351808285015260005b81811015610f1757858101830151858201604001528201610efb565b81811115610f29576000604083870101525b50601f01601f1916929092016040019392505050565b80356001600160a01b0381168114610f5657600080fd5b919050565b60008060408385031215610f6e57600080fd5b610f7783610f3f565b946020939093013593505050565b600080600060608486031215610f9a57600080fd5b610fa384610f3f565b9250610fb160208501610f3f565b9150604084013590509250925092565b600060208284031215610fd357600080fd5b5035919050565b600060208284031215610fec57600080fd5b610ff582610f3f565b9392505050565b6020808252825182820181905260009190848201906040850190845b8181101561103d5783516001600160a01b031683529284019291840191600101611018565b50909695505050505050565b6000806040838503121561105c57600080fd5b61106583610f3f565b915061107360208401610f3f565b90509250929050565b600181811c9082168061109057607f821691505b6020821081141561075357634e487b7160e01b600052602260045260246000fd5b634e487b7160e01b600052603260045260246000fd5b634e487b7160e01b600052601160045260246000fd5b6000828210156110ef576110ef6110c7565b500390565b634e487b7160e01b600052603160045260246000fd5b600060001982141561111e5761111e6110c7565b5060010190565b60008219821115611138576111386110c7565b500190565b634e487b7160e01b600052604160045260246000fdfea26469706673582212208f2db967711fb2526e90c14e3c2fcf6912efeebab9cadc6523f08ed47aa9f23664736f6c63430008090033",
  "devdoc": {
    "kind": "dev",
    "methods": {
      "allowance(address,address)": {
        "details": "See {IERC20-allowance}."
      },
      "approve(address,uint256)": {
        "details": "See {IERC20-approve}. NOTE: If `amount` is the maximum `uint256`, the allowance is not updated on `transferFrom`. This is semantically equivalent to an infinite approval. Requirements: - `spender` cannot be the zero address."
      },
      "balanceOf(address)": {
        "details": "See {IERC20-balanceOf}."
      },
      "decimals()": {
        "details": "Returns the number of decimals used to get its user representation. For example, if `decimals` equals `2`, a balance of `505` tokens should be displayed to a user as `5.05` (`505 / 10 ** 2`). Tokens usually opt for a value of 18, imitating the relationship between Ether and Wei. This is the value {ERC20} uses, unless this function is overridden; NOTE: This information is only used for _display_ purposes: it in no way affects any of the arithmetic of the contract, including {IERC20-balanceOf} and {IERC20-transfer}."
      },
      "decreaseAllowance(address,uint256)": {
        "details": "Atomically decreases the allowance granted to `spender` by the caller. This is an alternative to {approve} that can be used as a mitigation for problems described in {IERC20-approve}. Emits an {Approval} event indicating the updated allowance. Requirements: - `spender` cannot be the zero address. - `spender` must have allowance for the caller of at least `subtractedValue`."
      },
      "increaseAllowance(address,uint256)": {
        "details": "Atomically increases the allowance granted to `spender` by the caller. This is an alternative to {approve} that can be used as a mitigation for problems described in {IERC20-approve}. Emits an {Approval} event indicating the updated allowance. Requirements: - `spender` cannot be the zero address."
      },
      "name()": {
        "details": "Returns the name of the token."
      },
      "symbol()": {
        "details": "Returns the symbol of the token, usually a shorter version of the name."
      },
      "totalSupply()": {
        "details": "See {IERC20-totalSupply}."
      },
      "transferFrom(address,address,uint256)": {
        "details": "See {IERC20-transferFrom}. Emits an {Approval} event indicating the updated allowance. This is not required by the EIP. See the note at the beginning of {ERC20}. NOTE: Does not update the allowance if the current allowance is the maximum `uint256`. Requirements: - `from` and `to` cannot be the zero address. - `from` must have a balance of at least `amount`. - the caller must have allowance for ``from``'s tokens of at least `amount`."
      }
    },
    "version": 1
  },
  "userdoc": {
    "kind": "user",
    "methods": {},
    "version": 1
  },
  "storageLayout": {
    "storage": [
      {
        "astId": 15,
        "contract": "contracts/DogCoin.sol:DogCoin",
        "label": "_balances",
        "offset": 0,
        "slot": "0",
        "type": "t_mapping(t_address,t_uint256)"
      },
      {
        "astId": 21,
        "contract": "contracts/DogCoin.sol:DogCoin",
        "label": "_allowances",
        "offset": 0,
        "slot": "1",
        "type": "t_mapping(t_address,t_mapping(t_address,t_uint256))"
      },
      {
        "astId": 23,
        "contract": "contracts/DogCoin.sol:DogCoin",
        "label": "_totalSupply",
        "offset": 0,
        "slot": "2",
        "type": "t_uint256"
      },
      {
        "astId": 25,
        "contract": "contracts/DogCoin.sol:DogCoin",
        "label": "_name",
        "offset": 0,
        "slot": "3",
        "type": "t_string_storage"
      },
      {
        "astId": 27,
        "contract": "contracts/DogCoin.sol:DogCoin",
        "label": "_symbol",
        "offset": 0,
        "slot": "4",
        "type": "t_string_storage"
      },
      {
        "astId": 720,
        "contract": "contracts/DogCoin.sol:DogCoin",
        "label": "holders",
        "offset": 0,
        "slot": "5",
        "type": "t_array(t_address)dyn_storage"
      }
    ],
    "types": {
      "t_address": {
        "encoding": "inplace",
        "label": "address",
        "numberOfBytes": "20"
      },
      "t_array(t_address)dyn_storage": {
        "base": "t_address",
        "encoding": "dynamic_array",
        "label": "address[]",
        "numberOfBytes": "32"
      },
      "t_mapping(t_address,t_mapping(t_address,t_uint256))": {
        "encoding": "mapping",
        "key": "t_address",
        "label": "mapping(address => mapping(address => uint256))",
        "numberOfBytes": "32",
        "value": "t_mapping(t_address,t_uint256)"
      },
      "t_mapping(t_address,t_uint256)": {
        "encoding": "mapping",
        "key": "t_address",
        "label": "mapping(address => uint256)",
        "numberOfBytes": "32",
        "value": "t_uint256"
      },
      "t_string_storage": {
        "encoding": "bytes",
        "label": "string",
        "numberOfBytes": "32"
      },
      "t_uint256": {
        "encoding": "inplace",
        "label": "uint256",
        "numberOfBytes": "32"
      }
    }
  }
}